:040000008031132810
:100008007E1480318B1D09280A2811280B1C0D2805
:100018000E2811288631152680317E10090080317E
:10002800152820308400003085001D3086313526A3
:1000380080317E10200080312128843116248031BF
:10004800A930F4000330F5008631472680318B173C
:100058000B170030F400F50084312F248031003074
:10006800F400F5008431462480310030F400F500B6
:1000780084315D2480310F302000D0005008CC003E
:100088000E308231272280312000D1005108D20061
:1000980035305206031D512852285A28A030F40042
:1000A8000030F50084312F2480316128A030F4001D
:1000B8000030F500843146248031B830F4000B302C
:1000C800F5008431B92480311D302000D00050085B
:1000D800CC008030D1005108CD000E3082315E2234
:1000E8008031E830F4000330F5008431B9248031E0
:1000F8001E302000D0005008CC002830D100510814
:10010800CD000E3082315E2280311F302000D000B9
:100118005008CC00BF30D1005108CD000E308231DC
:100128005E2280311B302000D0005008CC00CD0169
:100138000E3082315E2280311B302000D000500802
:10014800CC000230D1005108CD000E3082315E2241
:1001580080311B302000D0005008CC008230D10004
:100168005108CD000E3082315E2280311B302000D4
:10017800D0005008CC000E30823127228031073061
:100188002000D0005008CC000E3082312722803168
:100198002000D1005108D3000930D0005008CC000D
:1001A8000E308231272280312000D1005108D4003E
:1001B8000B30D0005008CC000E308231272280311D
:1001C8002000D1005108D5005308803A7F3E031C17
:1001D800EE28EF28F8285308F400F501F41BF5037E
:1001E80084315D24803109295308D000D101D01B06
:1001F800D103D009D109D00A0319D10A5008F40053
:100208005108F50084315D24803120005408803A7B
:100218007F3E031C102911291A295408F400F501FE
:10022800F41BF5038431462480312B295408D0006F
:10023800D101D01BD103D009D109D00A0319D10AA1
:100248005008F4005108F50084314624803120001C
:100258005508803A7F3E031C322933293C2955082A
:10026800F400F501F41BF50384312F248031C328F1
:100278005508D000D101D01BD103D009D109D00A2B
:100288000319D10A5008F4005108F50084312F24CD
:100298008031C32880311328863141268131003AC4
:1002A80003195729582989296529863174268131E6
:1002B800A52986316F268131A529863165268131A8
:1002C800A52920002F08C3004308C2000630203E9D
:1002D80086008701413F8A00403F0A0081312000A3
:1002E800C400C5014508003A03197B29612944085F
:1002F800013A03196129033A03195929013A0319E3
:100308005D29073A03196129612920003C1017303B
:10031800203E86008701403F84008501810A00084D
:1003280086317E26813101302000B8020030B93B89
:1003380038083904031DA129A229A4290630A529B2
:10034800033008008631922681312000C300370827
:1003580086008701430881000130C3004308B707BE
:100368000130B8020030B93B380839040319BD29F7
:10037800BE29C3298631872681310530EC29BC1571
:10038800CD29863156268131EC2986315B2681318B
:10039800EC292C08C3004308C20021088A00200861
:1003A8000A0081312000C400C5014508003A03193C
:1003B800DE29C9294408013A0319C929033A03194E
:1003C800C529013A0319C529073A0319C929C929B1
:1003D8000800F500F601F60A20003C19F429F52971
:1003E800252A7508F4007408B600BC103C153C10AA
:1003F8000E30F4007408BA00F430B4000130B500CF
:10040800BC15AC30A0000630A100AC01AC30A20095
:100418000630A300AD01AC30A4000630A500AE0143
:10042800AC30A6000630A700AF01AA30A8000630FD
:10043800A900B0018631A72681318531D3258131C4
:10044800F601760808002000CE00CF0120004E08F3
:100458008131ED218231003A0319332A342A2A2ABC
:1004680057302000BE000530BF004F30CD004D088A
:10047800C0008531B72582310130F4000030F50025
:100488004C3085317D25823100302000BE00BF0010
:10049800C0018531A925823186314C2682318331CC
:1004A800C6238231013A03195A2A5B2A532A2000AB
:1004B8004F0808002000CF0020004F088131ED21AF
:1004C8008231003A0319692A6A2A602A31302000E9
:1004D800BE000530BF004D30CE004E08C00085314B
:1004E800B72582310130F4000030F5004C308531F9
:1004F8007D25823100302000BE00BF00C00185315B
:10050800A925823186314C2682318331C623823136
:10051800013A0319902A912A892A08002000BC155B
:10052800A22A86316A268231C12A86318F268231F3
:100538000330C12A863165268231C12A2C08C300BE
:100548004308C20021088A0020080A0082312000DE
:10055800C400C5014508003A0319B32A9E2A440875
:10056800013A03199E2A033A0319952A013A0319F5
:10057800952A073A0319992A9E2A080020003C1058
:100588000230C3004308BB00D12A86316A26823173
:10059800EE2A863165268231EE2A2E08C3004308EA
:1005A800C2000430203E86008701413F8A00403F58
:1005B8000A0082312000C400C5014508003A031929
:1005C800E62ACD2A4408023A0319C92A013A03192E
:1005D800C92ACD2A08008631A726823120003C1C72
:1005E800F62AF72A042B863141268231003A03196C
:1005F800FE2AFF2A042B0F302000C6004608BA0046
:1006080020003A08C600C701C635C70D6A3046073C
:1006180084008330473D8500013F8A00003F0A007F
:1006280083312000C8004808BA00080022008C0165
:100638008D018E013F3021008C00F0308D00973005
:100648008E00873023008E0020308D0017308C00FC
:10065800803024008D008C018E012100951322002A
:100668009D019E012700961395179413AE30F40050
:100678000630F5008631472683318B1508002000A7
:10068800BD007408750403194A2B4B2B5C2B3D35B0
:10069800203E860087017408C03F7508C13F760870
:1006A800F7003D082C3E8600870177088100692BFA
:1006B8003D35203E86008701AC30C03F0630C13F43
:1006C8003D082C3E860087018101080079340634F4
:1006D8000C3406342634063450340134A63401343C
:1006E8002E34063492340234743406346F340634AB
:1006F8006A34063465340634603406345B340634B0
:100708005634063451340634C23402342000CA0048
:10071800CB01CB0ABC18912B922BA62BBC14CB0176
:100728004A080319982B992B9C2BBA01BA0AA02BBB
:100738000230C9004908BA0086319E2683318531C6
:10074800E025833120004B080800A030F00000307D
:10075800F1008431A2248331A030F0000030F10090
:1007680084318B248331A030F0000030F1008431D3
:1007780074248331B830F0000B30F1008431CF2479
:1007880083310800F501F50A2000BC18CC2BCD2BCD
:10079800E02B3C11FF30F4007408B6008631A72620
:1007A80083318631A12683318631A4268331200006
:1007B8003B08F4007408F50075080800200042089A
:1007C80086008701403FF400413FF5004208023EA1
:1007D80086008701010885317D258331003020009E
:1007E800BE00BF00C0018531B72583310230080043
:1007F8002000420886008701403FF400413FF50091
:100808004208023E86008701010885317D25833133
:1008180000302000BE00BF00C0018531B7258331FC
:100828000230080086310326843183311A2384314B
:100838008531ED25843186318326843185318D25B6
:10084800843185319B2584318531F9258431863180
:100858001E26843108007508F7007408F600F7367C
:10086800F60CF736F60C760826009800740803395B
:10087800F6000430F635890B3E2C1A08CF39760479
:100888009A0008007508F7007408F600F736F60CA9
:10089800F736F60C76082500980074080339F60038
:1008A8000430F635890B552C1A08CF3976049A008E
:1008B80008007508F7007408F600F736F60CF736E6
:1008C800F60C76082500910074080339F600043008
:1008D800F635890B6C2C1308CF3976049300080081
:1008E8007108F3007008F200F336F20CF336F20CDC
:1008F80072082600980070080339F2000430F235B7
:10090800890B832C1A08CF3972049A0008007108E1
:10091800F3007008F200F336F20CF336F20C7208AA
:100928002500980070080339F2000430F235890B6D
:100938009A2C1A08CF3972049A0008007108F3003B
:100948007008F200F336F20CF336F20C7208250048
:10095800910070080339F2000430F235890BB12C8C
:100968001308CF39720493000800C22C0B30F6002C
:100978006230890BBD2CF60BBD2C00320130F4021D
:100988000030F53B740A031DCD2C750A031DCD2CD0
:10099800CE2CBA2C0800D82C0B30F2006230890B10
:1009A800D32CF20BD32C00320130F0020030F13B93
:1009B800700A031DE32C710A031DE32CE42CD02CD0
:1009C80008000230F4000030F500200042088531AC
:1009D8007D25843100302000BE00BF00C001853174
:1009E800B7258431023008000130F4000030F500EA
:1009F8002000420885317D25843100302000BE006A
:100A0800BF00C0018531B7258431023008000130AC
:100A1800F4000030F5002000420885317D2585313D
:100A280000302000BE00BF00C0018531B7258531E8
:100A3800043008000230F4000030F50020004208BD
:100A480085317D25853100302000BE00BF00C00102
:100A58008531B7258531043008000130F4000030B5
:100A6800F5002000420885317D25853100302000C1
:100A7800BE00BF00C0018531B725853104300800AC
:100A88000230F4000030F5002000420885317D2551
:100A9800853100302000BE00BF00C0018531B72578
:100AA8008531023008000130F4000030F5002000E4
:100AB800420885317D25853100302000BE00BF0009
:100AC800C0018531B7258531023008000230F400B5
:100AD8000030F5002000420885317D258531003041
:100AE8002000BE00BF00C0018531B7258531043024
:100AF8000800F7002000BC1D822D832D8C2D77085F
:100B0800F6007608B7007508B9007408B800BC117B
:100B180008003C3025009A009C0180309B00013081
:100B28009D00990113309800F3309E0508003C3071
:100B380025009300950180309400013096009201C1
:100B480013309100FC309E05080020003F08F50096
:100B58003E08F4004008C1004108F6000230833125
:100B680043238531080020003F08F5003E08F400C3
:100B78004008C1004108F600003083314323853125
:100B88000800780879040319CA2DCB2DD02D7908CF
:100B98008A0078080A008531270096130800240087
:100BA800951AD72DD82DDF2D940108309500960180
:100BB8004F30920095160800E72D86313B26853187
:100BC8008231EF2285312000BC18EB2DEC2DE12D70
:100BD8000800703021009900980122009601210038
:100BE8001A1FF72DF82DF32D08003C3026009A0027
:100BF8000330980099013F3025009E050800240025
:100C080094010830950096014F3092009512080023
:100C180020003C140314360D86317E2686310530BB
:100C280008002700961F192E1A2E1D2E8531C5255E
:100C380086310800273020009B009A019110073068
:100C48009C00080020003C14363586317E2686310B
:100C58000330080020003C10863195268631043088
:100C68000800640080010131890B362E0034200011
:100C7800911D3F2E402E3B2E08002400160E890C95
:100C8800890C013908007508F9007408F800080093
:100C9800003083318A23863108002000BC10BB0154
:100CA8000E30080086318B268631093008008631DF
:100CB8008B2686310A300800863187268631053032
:100CC80008008631982686310030080086319B2638
:100CD80086310130080086319B26863102300800B3
:100CE80086319B268631013008002000BC10BB01EC
:100CF8000E300800F4007408240091000800163033
:100D080021009700080024009612161608002400F7
:100D180096161616080020009115080024001108E0
:100D28000800240096150800240016150800240061
:100D380096140800240016140800210091110800D8
:100D480024009512080020009111080005300800C1
:060D580001300800080054
:020000040001F9
:04000E00E43FFF3F8D
:00000001FF
